{"abi":[{"type":"constructor","inputs":[{"name":"_initialAnswer","type":"int256","internalType":"int256"}],"stateMutability":"nonpayable"},{"type":"function","name":"decimals","inputs":[],"outputs":[{"name":"","type":"uint8","internalType":"uint8"}],"stateMutability":"view"},{"type":"function","name":"latestAnswer","inputs":[],"outputs":[{"name":"","type":"int256","internalType":"int256"}],"stateMutability":"view"},{"type":"function","name":"latestRound","inputs":[],"outputs":[{"name":"","type":"uint80","internalType":"uint80"}],"stateMutability":"view"},{"type":"function","name":"latestRoundData","inputs":[],"outputs":[{"name":"roundId","type":"uint80","internalType":"uint80"},{"name":"answer","type":"int256","internalType":"int256"},{"name":"startedAt","type":"uint256","internalType":"uint256"},{"name":"updatedAt","type":"uint256","internalType":"uint256"},{"name":"answeredInRound","type":"uint80","internalType":"uint80"}],"stateMutability":"view"},{"type":"function","name":"latestTimestamp","inputs":[],"outputs":[{"name":"","type":"uint256","internalType":"uint256"}],"stateMutability":"view"},{"type":"function","name":"updateAnswer","inputs":[{"name":"_answer","type":"int256","internalType":"int256"}],"outputs":[],"stateMutability":"nonpayable"}],"bytecode":{"object":"0x6080604052348015600f57600080fd5b506040516105063803806105068339818101604052810190602f919060a6565b80600081905550426001819055506001600260006101000a81548169ffffffffffffffffffff021916908369ffffffffffffffffffff1602179055505060ce565b600080fd5b6000819050919050565b6086816075565b8114609057600080fd5b50565b60008151905060a081607f565b92915050565b60006020828403121560b95760b86070565b5b600060c5848285016093565b91505092915050565b610429806100dd6000396000f3fe608060405234801561001057600080fd5b50600436106100625760003560e01c8063313ce5671461006757806350d25bcd14610085578063668a0f02146100a35780638205bf6a146100c1578063a87a20ce146100df578063feaf968c146100fb575b600080fd5b61006f61011d565b60405161007c919061021e565b60405180910390f35b61008d610122565b60405161009a9190610252565b60405180910390f35b6100ab610128565b6040516100b89190610292565b60405180910390f35b6100c9610144565b6040516100d691906102c6565b60405180910390f35b6100f960048036038101906100f49190610312565b61014a565b005b6101036101ae565b60405161011495949392919061033f565b60405180910390f35b600881565b60005481565b600260009054906101000a900469ffffffffffffffffffff1681565b60015481565b80600081905550426001819055506002600081819054906101000a900469ffffffffffffffffffff1680929190610180906103c1565b91906101000a81548169ffffffffffffffffffff021916908369ffffffffffffffffffff1602179055505050565b6000806000806000600260009054906101000a900469ffffffffffffffffffff16600054600154600154600260009054906101000a900469ffffffffffffffffffff16945094509450945094509091929394565b600060ff82169050919050565b61021881610202565b82525050565b6000602082019050610233600083018461020f565b92915050565b6000819050919050565b61024c81610239565b82525050565b60006020820190506102676000830184610243565b92915050565b600069ffffffffffffffffffff82169050919050565b61028c8161026d565b82525050565b60006020820190506102a76000830184610283565b92915050565b6000819050919050565b6102c0816102ad565b82525050565b60006020820190506102db60008301846102b7565b92915050565b600080fd5b6102ef81610239565b81146102fa57600080fd5b50565b60008135905061030c816102e6565b92915050565b600060208284031215610328576103276102e1565b5b6000610336848285016102fd565b91505092915050565b600060a0820190506103546000830188610283565b6103616020830187610243565b61036e60408301866102b7565b61037b60608301856102b7565b6103886080830184610283565b9695505050505050565b7f4e487b7100000000000000000000000000000000000000000000000000000000600052601160045260246000fd5b60006103cc8261026d565b915069ffffffffffffffffffff82036103e8576103e7610392565b5b60018201905091905056fea264697066735822122024450f6f60c88b3c57a66f3143a2629a852ef46de746bd6949ad5d237c50abc064736f6c634300081c0033","linkReferences":{}},"methodIdentifiers":{"decimals()":"313ce567","latestAnswer()":"50d25bcd","latestRound()":"668a0f02","latestRoundData()":"feaf968c","latestTimestamp()":"8205bf6a","updateAnswer(int256)":"a87a20ce"},"id":32}