{"abi":[{"type":"constructor","inputs":[{"name":"_rateOracle","type":"address","internalType":"address"}],"stateMutability":"nonpayable"},{"type":"function","name":"addToken","inputs":[{"name":"token","type":"address","internalType":"address"},{"name":"rate","type":"uint256","internalType":"uint256"}],"outputs":[],"stateMutability":"nonpayable"},{"type":"function","name":"balances","inputs":[{"name":"","type":"address","internalType":"address"},{"name":"","type":"address","internalType":"address"}],"outputs":[{"name":"","type":"uint256","internalType":"uint256"}],"stateMutability":"view"},{"type":"function","name":"batchDeposit","inputs":[{"name":"token","type":"address","internalType":"address"},{"name":"amount","type":"uint256","internalType":"uint256"}],"outputs":[],"stateMutability":"nonpayable"},{"type":"function","name":"calculateInterest","inputs":[{"name":"user","type":"address","internalType":"address"},{"name":"token","type":"address","internalType":"address"}],"outputs":[{"name":"","type":"uint256","internalType":"uint256"}],"stateMutability":"view"},{"type":"function","name":"calculateLockedInterest","inputs":[{"name":"user","type":"address","internalType":"address"},{"name":"token","type":"address","internalType":"address"}],"outputs":[{"name":"","type":"uint256","internalType":"uint256"}],"stateMutability":"view"},{"type":"function","name":"checkGoal","inputs":[{"name":"user","type":"address","internalType":"address"}],"outputs":[{"name":"","type":"bool","internalType":"bool"}],"stateMutability":"view"},{"type":"function","name":"contributeToPool","inputs":[{"name":"poolId","type":"uint256","internalType":"uint256"},{"name":"amount","type":"uint256","internalType":"uint256"}],"outputs":[],"stateMutability":"nonpayable"},{"type":"function","name":"createPool","inputs":[{"name":"token","type":"address","internalType":"address"},{"name":"targetAmount","type":"uint256","internalType":"uint256"},{"name":"duration","type":"uint256","internalType":"uint256"}],"outputs":[],"stateMutability":"nonpayable"},{"type":"function","name":"deposit","inputs":[{"name":"token","type":"address","internalType":"address"},{"name":"amount","type":"uint256","internalType":"uint256"}],"outputs":[],"stateMutability":"nonpayable"},{"type":"function","name":"depositTimestamps","inputs":[{"name":"","type":"address","internalType":"address"}],"outputs":[{"name":"","type":"uint256","internalType":"uint256"}],"stateMutability":"view"},{"type":"function","name":"getBalance","inputs":[{"name":"user","type":"address","internalType":"address"},{"name":"token","type":"address","internalType":"address"}],"outputs":[{"name":"","type":"uint256","internalType":"uint256"}],"stateMutability":"view"},{"type":"function","name":"getLockedBalance","inputs":[{"name":"user","type":"address","internalType":"address"},{"name":"token","type":"address","internalType":"address"}],"outputs":[{"name":"","type":"uint256","internalType":"uint256"}],"stateMutability":"view"},{"type":"function","name":"getPoolBalance","inputs":[{"name":"poolId","type":"uint256","internalType":"uint256"}],"outputs":[{"name":"","type":"uint256","internalType":"uint256"}],"stateMutability":"view"},{"type":"function","name":"getUserHistory","inputs":[{"name":"user","type":"address","internalType":"address"}],"outputs":[{"name":"","type":"tuple[]","internalType":"struct SavingsPool.Transaction[]","components":[{"name":"amount","type":"uint256","internalType":"uint256"},{"name":"timestamp","type":"uint256","internalType":"uint256"},{"name":"action","type":"string","internalType":"string"},{"name":"token","type":"address","internalType":"address"}]}],"stateMutability":"view"},{"type":"function","name":"lockDeposit","inputs":[{"name":"token","type":"address","internalType":"address"},{"name":"amount","type":"uint256","internalType":"uint256"},{"name":"lockDuration","type":"uint256","internalType":"uint256"}],"outputs":[],"stateMutability":"nonpayable"},{"type":"function","name":"lockTimestamps","inputs":[{"name":"","type":"address","internalType":"address"}],"outputs":[{"name":"","type":"uint256","internalType":"uint256"}],"stateMutability":"view"},{"type":"function","name":"lockedBalances","inputs":[{"name":"","type":"address","internalType":"address"},{"name":"","type":"address","internalType":"address"}],"outputs":[{"name":"","type":"uint256","internalType":"uint256"}],"stateMutability":"view"},{"type":"function","name":"owner","inputs":[],"outputs":[{"name":"","type":"address","internalType":"address"}],"stateMutability":"view"},{"type":"function","name":"poolCount","inputs":[],"outputs":[{"name":"","type":"uint256","internalType":"uint256"}],"stateMutability":"view"},{"type":"function","name":"pools","inputs":[{"name":"","type":"uint256","internalType":"uint256"}],"outputs":[{"name":"totalBalance","type":"uint256","internalType":"uint256"},{"name":"targetAmount","type":"uint256","internalType":"uint256"},{"name":"deadline","type":"uint256","internalType":"uint256"},{"name":"token","type":"address","internalType":"address"}],"stateMutability":"view"},{"type":"function","name":"rateOracle","inputs":[],"outputs":[{"name":"","type":"address","internalType":"contract AggregatorV3Interface"}],"stateMutability":"view"},{"type":"function","name":"setGoal","inputs":[{"name":"targetAmount","type":"uint256","internalType":"uint256"},{"name":"duration","type":"uint256","internalType":"uint256"}],"outputs":[],"stateMutability":"nonpayable"},{"type":"function","name":"supportedTokens","inputs":[{"name":"","type":"address","internalType":"address"}],"outputs":[{"name":"","type":"bool","internalType":"bool"}],"stateMutability":"view"},{"type":"function","name":"tokenRates","inputs":[{"name":"","type":"address","internalType":"address"}],"outputs":[{"name":"","type":"uint256","internalType":"uint256"}],"stateMutability":"view"},{"type":"function","name":"updateRate","inputs":[{"name":"token","type":"address","internalType":"address"}],"outputs":[],"stateMutability":"nonpayable"},{"type":"function","name":"userGoals","inputs":[{"name":"","type":"address","internalType":"address"}],"outputs":[{"name":"targetAmount","type":"uint256","internalType":"uint256"},{"name":"deadline","type":"uint256","internalType":"uint256"},{"name":"achieved","type":"bool","internalType":"bool"}],"stateMutability":"view"},{"type":"function","name":"userHistory","inputs":[{"name":"","type":"address","internalType":"address"},{"name":"","type":"uint256","internalType":"uint256"}],"outputs":[{"name":"amount","type":"uint256","internalType":"uint256"},{"name":"timestamp","type":"uint256","internalType":"uint256"},{"name":"action","type":"string","internalType":"string"},{"name":"token","type":"address","internalType":"address"}],"stateMutability":"view"},{"type":"function","name":"withdraw","inputs":[{"name":"token","type":"address","internalType":"address"},{"name":"amount","type":"uint256","internalType":"uint256"}],"outputs":[],"stateMutability":"nonpayable"},{"type":"function","name":"withdrawLocked","inputs":[{"name":"token","type":"address","internalType":"address"}],"outputs":[],"stateMutability":"nonpayable"},{"type":"event","name":"Deposited","inputs":[{"name":"user","type":"address","indexed":true,"internalType":"address"},{"name":"token","type":"address","indexed":false,"internalType":"address"},{"name":"amount","type":"uint256","indexed":false,"internalType":"uint256"}],"anonymous":false},{"type":"event","name":"GoalSet","inputs":[{"name":"user","type":"address","indexed":true,"internalType":"address"},{"name":"targetAmount","type":"uint256","indexed":false,"internalType":"uint256"},{"name":"deadline","type":"uint256","indexed":false,"internalType":"uint256"}],"anonymous":false},{"type":"event","name":"LockedDeposited","inputs":[{"name":"user","type":"address","indexed":true,"internalType":"address"},{"name":"token","type":"address","indexed":false,"internalType":"address"},{"name":"amount","type":"uint256","indexed":false,"internalType":"uint256"},{"name":"lockDuration","type":"uint256","indexed":false,"internalType":"uint256"}],"anonymous":false},{"type":"event","name":"LockedWithdrawn","inputs":[{"name":"user","type":"address","indexed":true,"internalType":"address"},{"name":"token","type":"address","indexed":false,"internalType":"address"},{"name":"amount","type":"uint256","indexed":false,"internalType":"uint256"},{"name":"interest","type":"uint256","indexed":false,"internalType":"uint256"}],"anonymous":false},{"type":"event","name":"PoolContributed","inputs":[{"name":"poolId","type":"uint256","indexed":false,"internalType":"uint256"},{"name":"user","type":"address","indexed":true,"internalType":"address"},{"name":"amount","type":"uint256","indexed":false,"internalType":"uint256"}],"anonymous":false},{"type":"event","name":"PoolCreated","inputs":[{"name":"poolId","type":"uint256","indexed":false,"internalType":"uint256"},{"name":"targetAmount","type":"uint256","indexed":false,"internalType":"uint256"},{"name":"deadline","type":"uint256","indexed":false,"internalType":"uint256"},{"name":"token","type":"address","indexed":false,"internalType":"address"}],"anonymous":false},{"type":"event","name":"RateUpdated","inputs":[{"name":"token","type":"address","indexed":false,"internalType":"address"},{"name":"newRate","type":"uint256","indexed":false,"internalType":"uint256"}],"anonymous":false},{"type":"event","name":"Withdrawn","inputs":[{"name":"user","type":"address","indexed":true,"internalType":"address"},{"name":"token","type":"address","indexed":false,"internalType":"address"},{"name":"amount","type":"uint256","indexed":false,"internalType":"uint256"},{"name":"interest","type":"uint256","indexed":false,"internalType":"uint256"}],"anonymous":false},{"type":"error","name":"MathOverflowedMulDiv","inputs":[]},{"type":"error","name":"ReentrancyGuardReentrantCall","inputs":[]}],"bytecode":{"object":"0x60a060405234801561001057600080fd5b5060405161544b38038061544b83398181016040528101906100329190610118565b60016000819055503373ffffffffffffffffffffffffffffffffffffffff1660808173ffffffffffffffffffffffffffffffffffffffff168152505080600b60006101000a81548173ffffffffffffffffffffffffffffffffffffffff021916908373ffffffffffffffffffffffffffffffffffffffff16021790555050610145565b600080fd5b600073ffffffffffffffffffffffffffffffffffffffff82169050919050565b60006100e5826100ba565b9050919050565b6100f5816100da565b811461010057600080fd5b50565b600081519050610112816100ec565b92915050565b60006020828403121561012e5761012d6100b5565b5b600061013c84828501610103565b91505092915050565b6080516152e4610167600039600081816129780152612a2a01526152e46000f3fe608060405234801561001057600080fd5b50600436106101cf5760003560e01c80638da5cb5b11610104578063bf0e92c4116100a2578063ed1375d511610071578063ed1375d5146105c8578063f3fef3a3146105f8578063f525cb6814610614578063f74826bb14610632576101cf565b8063bf0e92c41461051c578063c23f001f14610538578063c736887e14610568578063d4fac45d14610598576101cf565b8063ac4afa38116100de578063ac4afa381461047f578063af81c5b9146104b2578063b039ddf6146104ce578063b7fa76c9146104ea576101cf565b80638da5cb5b1461041357806398f4b1b214610431578063a2870d941461044f576101cf565b80634b6290e51161017157806368c4ac261161014b57806368c4ac26146103675780637ac0d1551461039757806386403125146103b357806387092940146103e3576101cf565b80634b6290e5146102d75780634fb3d3b11461030757806352e5b7e414610337576101cf565b806329577f4c116101ad57806329577f4c146102675780633ad0d08f146102835780633b6167081461029f57806347e7ef24146102bb576101cf565b8063066bf18c146101d457806322e8b99014610204578063240be94414610237575b600080fd5b6101ee60048036038101906101e99190613ec2565b61064e565b6040516101fb9190613f0a565b60405180910390f35b61021e60048036038101906102199190613f5b565b610943565b60405161022e9493929190614049565b60405180910390f35b610251600480360381019061024c9190613ec2565b610a38565b60405161025e9190614095565b60405180910390f35b610281600480360381019061027c91906140b0565b610a50565b005b61029d600480360381019061029891906140b0565b610d45565b005b6102b960048036038101906102b49190613f5b565b6112da565b005b6102d560048036038101906102d09190613f5b565b61187b565b005b6102f160048036038101906102ec91906140f0565b611d5f565b6040516102fe9190614095565b60405180910390f35b610321600480360381019061031c9190613ec2565b611fea565b60405161032e91906142bd565b60405180910390f35b610351600480360381019061034c91906140f0565b612184565b60405161035e9190614095565b60405180910390f35b610381600480360381019061037c9190613ec2565b6121a9565b60405161038e9190613f0a565b60405180910390f35b6103b160048036038101906103ac9190613ec2565b6121c9565b005b6103cd60048036038101906103c89190613ec2565b6126ec565b6040516103da9190614095565b60405180910390f35b6103fd60048036038101906103f891906140f0565b612704565b60405161040a9190614095565b60405180910390f35b61041b612976565b60405161042891906142df565b60405180910390f35b61043961299a565b6040516104469190614359565b60405180910390f35b61046960048036038101906104649190613ec2565b6129c0565b6040516104769190614095565b60405180910390f35b61049960048036038101906104949190614374565b6129d8565b6040516104a994939291906143a1565b60405180910390f35b6104cc60048036038101906104c79190613f5b565b612a28565b005b6104e860048036038101906104e391906143e6565b612ba5565b005b61050460048036038101906104ff9190613ec2565b612def565b60405161051393929190614439565b60405180910390f35b610536600480360381019061053191906143e6565b612e26565b005b610552600480360381019061054d91906140f0565b61336e565b60405161055f9190614095565b60405180910390f35b610582600480360381019061057d91906140f0565b613393565b60405161058f9190614095565b60405180910390f35b6105b260048036038101906105ad91906140f0565b61342e565b6040516105bf9190614095565b60405180910390f35b6105e260048036038101906105dd9190614374565b6134c9565b6040516105ef9190614095565b60405180910390f35b610612600480360381019061060d9190613f5b565b61353a565b005b61061c613a72565b6040516106299190614095565b60405180910390f35b61064c60048036038101906106479190613ec2565b613a78565b005b600080600760008473ffffffffffffffffffffffffffffffffffffffff1673ffffffffffffffffffffffffffffffffffffffff16815260200190815260200160002060405180606001604052908160008201548152602001600182015481526020016002820160009054906101000a900460ff16151515158152505090506000816000015114806106e25750806020015142115b156106f157600091505061093e565b600080600090505b6001600954610708919061449f565b8110156109305761074f856008600084815260200190815260200160002060040160009054906101000a900473ffffffffffffffffffffffffffffffffffffffff16612704565b600360006008600085815260200190815260200160002060040160009054906101000a900473ffffffffffffffffffffffffffffffffffffffff1673ffffffffffffffffffffffffffffffffffffffff1673ffffffffffffffffffffffffffffffffffffffff16815260200190815260200160002060008773ffffffffffffffffffffffffffffffffffffffff1673ffffffffffffffffffffffffffffffffffffffff1681526020019081526020016000205461080c919061449f565b82610817919061449f565b9150610859856008600084815260200190815260200160002060040160009054906101000a900473ffffffffffffffffffffffffffffffffffffffff16611d5f565b600560006008600085815260200190815260200160002060040160009054906101000a900473ffffffffffffffffffffffffffffffffffffffff1673ffffffffffffffffffffffffffffffffffffffff1673ffffffffffffffffffffffffffffffffffffffff16815260200190815260200160002060008773ffffffffffffffffffffffffffffffffffffffff1673ffffffffffffffffffffffffffffffffffffffff16815260200190815260200160002054610916919061449f565b82610921919061449f565b915080806001019150506106f9565b508160000151811015925050505b919050565b600a602052816000526040600020818154811061095f57600080fd5b90600052602060002090600402016000915091505080600001549080600101549080600201805461098f90614502565b80601f01602080910402602001604051908101604052809291908181526020018280546109bb90614502565b8015610a085780601f106109dd57610100808354040283529160200191610a08565b820191906000526020600020905b8154815290600101906020018083116109eb57829003601f168201915b5050505050908060030160009054906101000a900473ffffffffffffffffffffffffffffffffffffffff16905084565b60046020528060005260406000206000915090505481565b600082118015610a6a575069d3c21bcecceda10000008211155b610aa9576040517f08c379a0000000000000000000000000000000000000000000000000000000008152600401610aa09061457f565b60405180910390fd5b620151808110158015610ac057506301e133808111155b610aff576040517f08c379a0000000000000000000000000000000000000000000000000000000008152600401610af6906145eb565b60405180910390fd5b60405180606001604052808381526020018242610b1c919061449f565b815260200160001515815250600760003373ffffffffffffffffffffffffffffffffffffffff1673ffffffffffffffffffffffffffffffffffffffff168152602001908152602001600020600082015181600001556020820151816001015560408201518160020160006101000a81548160ff021916908315150217905550905050600a60003373ffffffffffffffffffffffffffffffffffffffff1673ffffffffffffffffffffffffffffffffffffffff16815260200190815260200160002060405180608001604052808481526020014281526020016040518060400160405280600781526020017f736574476f616c000000000000000000000000000000000000000000000000008152508152602001600073ffffffffffffffffffffffffffffffffffffffff16815250908060018154018082558091505060019003906000526020600020906004020160009091909190915060008201518160000155602082015181600101556040820151816002019081610c9c91906147dc565b5060608201518160030160006101000a81548173ffffffffffffffffffffffffffffffffffffffff021916908373ffffffffffffffffffffffffffffffffffffffff16021790555050503373ffffffffffffffffffffffffffffffffffffffff167f5c838457975fd85a3ad95520599bb29f2c3c4cecd2edf32f5a1018d5778df751838342610d2b919061449f565b604051610d399291906148ae565b60405180910390a25050565b610d4d613c83565b6009548211158015610d5f5750600082115b610d9e576040517f08c379a0000000000000000000000000000000000000000000000000000000008152600401610d9590614923565b60405180910390fd5b60086000838152602001908152602001600020600201544210610df6576040517f08c379a0000000000000000000000000000000000000000000000000000000008152600401610ded9061498f565b60405180910390fd5b600160006008600085815260200190815260200160002060040160009054906101000a900473ffffffffffffffffffffffffffffffffffffffff1673ffffffffffffffffffffffffffffffffffffffff1673ffffffffffffffffffffffffffffffffffffffff16815260200190815260200160002060009054906101000a900460ff16610eb8576040517f08c379a0000000000000000000000000000000000000000000000000000000008152600401610eaf906149fb565b60405180910390fd5b60008111610efb576040517f08c379a0000000000000000000000000000000000000000000000000000000008152600401610ef290614a67565b60405180910390fd5b606469d3c21bcecceda1000000610f129190614a87565b816008600085815260200190815260200160002060000154610f34919061449f565b1115610f75576040517f08c379a0000000000000000000000000000000000000000000000000000000008152600401610f6c90614b15565b60405180910390fd5b6008600083815260200190815260200160002060040160009054906101000a900473ffffffffffffffffffffffffffffffffffffffff1673ffffffffffffffffffffffffffffffffffffffff166323b872dd3330846040518463ffffffff1660e01b8152600401610fe893929190614b35565b6020604051808303816000875af1158015611007573d6000803e3d6000fd5b505050506040513d601f19601f8201168201806040525081019061102b9190614b98565b61106a576040517f08c379a000000000000000000000000000000000000000000000000000000000815260040161106190614c11565b60405180910390fd5b806008600084815260200190815260200160002060030160003373ffffffffffffffffffffffffffffffffffffffff1673ffffffffffffffffffffffffffffffffffffffff16815260200190815260200160002060008282546110cd919061449f565b92505081905550806008600084815260200190815260200160002060000160008282546110fa919061449f565b92505081905550600a60003373ffffffffffffffffffffffffffffffffffffffff1673ffffffffffffffffffffffffffffffffffffffff16815260200190815260200160002060405180608001604052808381526020014281526020016040518060400160405280600e81526020017f706f6f6c436f6e7472696275746500000000000000000000000000000000000081525081526020016008600086815260200190815260200160002060040160009054906101000a900473ffffffffffffffffffffffffffffffffffffffff1673ffffffffffffffffffffffffffffffffffffffff1681525090806001815401808255809150506001900390600052602060002090600402016000909190919091506000820151816000015560208201518160010155604082015181600201908161123491906147dc565b5060608201518160030160006101000a81548173ffffffffffffffffffffffffffffffffffffffff021916908373ffffffffffffffffffffffffffffffffffffffff16021790555050503373ffffffffffffffffffffffffffffffffffffffff167fe1e62afa9f165c205f85c804e457ac88c0ac110f2dbdd603082a40add808915483836040516112c69291906148ae565b60405180910390a26112d6613cc9565b5050565b6112e2613c83565b600160008373ffffffffffffffffffffffffffffffffffffffff1673ffffffffffffffffffffffffffffffffffffffff16815260200190815260200160002060009054906101000a900460ff1661136e576040517f08c379a0000000000000000000000000000000000000000000000000000000008152600401611365906149fb565b60405180910390fd5b600081116113b1576040517f08c379a00000000000000000000000000000000000000000000000000000000081526004016113a890614a67565b60405180910390fd5b69d3c21bcecceda100000081600360008573ffffffffffffffffffffffffffffffffffffffff1673ffffffffffffffffffffffffffffffffffffffff16815260200190815260200160002060003373ffffffffffffffffffffffffffffffffffffffff1673ffffffffffffffffffffffffffffffffffffffff16815260200190815260200160002054611444919061449f565b1115611485576040517f08c379a000000000000000000000000000000000000000000000000000000000815260040161147c90614c7d565b60405180910390fd5b8173ffffffffffffffffffffffffffffffffffffffff1663095ea7b330836040518363ffffffff1660e01b81526004016114c0929190614c9d565b6020604051808303816000875af11580156114df573d6000803e3d6000fd5b505050506040513d601f19601f820116820180604052508101906115039190614b98565b611542576040517f08c379a000000000000000000000000000000000000000000000000000000000815260040161153990614d12565b60405180910390fd5b8173ffffffffffffffffffffffffffffffffffffffff166323b872dd3330846040518463ffffffff1660e01b815260040161157f93929190614b35565b6020604051808303816000875af115801561159e573d6000803e3d6000fd5b505050506040513d601f19601f820116820180604052508101906115c29190614b98565b611601576040517f08c379a00000000000000000000000000000000000000000000000000000000081526004016115f890614c11565b60405180910390fd5b80600360008473ffffffffffffffffffffffffffffffffffffffff1673ffffffffffffffffffffffffffffffffffffffff16815260200190815260200160002060003373ffffffffffffffffffffffffffffffffffffffff1673ffffffffffffffffffffffffffffffffffffffff168152602001908152602001600020600082825461168d919061449f565b9250508190555042600460003373ffffffffffffffffffffffffffffffffffffffff1673ffffffffffffffffffffffffffffffffffffffff16815260200190815260200160002081905550600a60003373ffffffffffffffffffffffffffffffffffffffff1673ffffffffffffffffffffffffffffffffffffffff16815260200190815260200160002060405180608001604052808381526020014281526020016040518060400160405280600781526020017f6465706f7369740000000000000000000000000000000000000000000000000081525081526020018473ffffffffffffffffffffffffffffffffffffffff168152509080600181540180825580915050600190039060005260206000209060040201600090919091909150600082015181600001556020820151816001015560408201518160020190816117d591906147dc565b5060608201518160030160006101000a81548173ffffffffffffffffffffffffffffffffffffffff021916908373ffffffffffffffffffffffffffffffffffffffff16021790555050503373ffffffffffffffffffffffffffffffffffffffff167f8752a472e571a816aea92eec8dae9baf628e840f4929fbcc2d155e6233ff68a78383604051611867929190614c9d565b60405180910390a2611877613cc9565b5050565b611883613c83565b600160008373ffffffffffffffffffffffffffffffffffffffff1673ffffffffffffffffffffffffffffffffffffffff16815260200190815260200160002060009054906101000a900460ff1661190f576040517f08c379a0000000000000000000000000000000000000000000000000000000008152600401611906906149fb565b60405180910390fd5b60008111611952576040517f08c379a000000000000000000000000000000000000000000000000000000000815260040161194990614a67565b60405180910390fd5b69d3c21bcecceda100000081600360008573ffffffffffffffffffffffffffffffffffffffff1673ffffffffffffffffffffffffffffffffffffffff16815260200190815260200160002060003373ffffffffffffffffffffffffffffffffffffffff1673ffffffffffffffffffffffffffffffffffffffff168152602001908152602001600020546119e5919061449f565b1115611a26576040517f08c379a0000000000000000000000000000000000000000000000000000000008152600401611a1d90614c7d565b60405180910390fd5b8173ffffffffffffffffffffffffffffffffffffffff166323b872dd3330846040518463ffffffff1660e01b8152600401611a6393929190614b35565b6020604051808303816000875af1158015611a82573d6000803e3d6000fd5b505050506040513d601f19601f82011682018060405250810190611aa69190614b98565b611ae5576040517f08c379a0000000000000000000000000000000000000000000000000000000008152600401611adc90614c11565b60405180910390fd5b80600360008473ffffffffffffffffffffffffffffffffffffffff1673ffffffffffffffffffffffffffffffffffffffff16815260200190815260200160002060003373ffffffffffffffffffffffffffffffffffffffff1673ffffffffffffffffffffffffffffffffffffffff1681526020019081526020016000206000828254611b71919061449f565b9250508190555042600460003373ffffffffffffffffffffffffffffffffffffffff1673ffffffffffffffffffffffffffffffffffffffff16815260200190815260200160002081905550600a60003373ffffffffffffffffffffffffffffffffffffffff1673ffffffffffffffffffffffffffffffffffffffff16815260200190815260200160002060405180608001604052808381526020014281526020016040518060400160405280600781526020017f6465706f7369740000000000000000000000000000000000000000000000000081525081526020018473ffffffffffffffffffffffffffffffffffffffff16815250908060018154018082558091505060019003906000526020600020906004020160009091909190915060008201518160000155602082015181600101556040820151816002019081611cb991906147dc565b5060608201518160030160006101000a81548173ffffffffffffffffffffffffffffffffffffffff021916908373ffffffffffffffffffffffffffffffffffffffff16021790555050503373ffffffffffffffffffffffffffffffffffffffff167f8752a472e571a816aea92eec8dae9baf628e840f4929fbcc2d155e6233ff68a78383604051611d4b929190614c9d565b60405180910390a2611d5b613cc9565b5050565b600080600660008573ffffffffffffffffffffffffffffffffffffffff1673ffffffffffffffffffffffffffffffffffffffff168152602001908152602001600020541480611e2a57506000600560008473ffffffffffffffffffffffffffffffffffffffff1673ffffffffffffffffffffffffffffffffffffffff16815260200190815260200160002060008573ffffffffffffffffffffffffffffffffffffffff1673ffffffffffffffffffffffffffffffffffffffff16815260200190815260200160002054145b80611e735750600660008473ffffffffffffffffffffffffffffffffffffffff1673ffffffffffffffffffffffffffffffffffffffff1681526020019081526020016000205442105b15611e815760009050611fe4565b600062015180600660008673ffffffffffffffffffffffffffffffffffffffff1673ffffffffffffffffffffffffffffffffffffffff16815260200190815260200160002054611ed19190614d32565b42611edc9190614d32565b90506301e13380811115611ef2576301e1338090505b611fe0600560008573ffffffffffffffffffffffffffffffffffffffff1673ffffffffffffffffffffffffffffffffffffffff16815260200190815260200160002060008673ffffffffffffffffffffffffffffffffffffffff1673ffffffffffffffffffffffffffffffffffffffff168152602001908152602001600020548260028060008873ffffffffffffffffffffffffffffffffffffffff1673ffffffffffffffffffffffffffffffffffffffff16815260200190815260200160002054611fbe919061449f565b611fc89190614a87565b60646301e13380611fd99190614a87565b6000613cd3565b9150505b92915050565b6060600a60008373ffffffffffffffffffffffffffffffffffffffff1673ffffffffffffffffffffffffffffffffffffffff168152602001908152602001600020805480602002602001604051908101604052809291908181526020016000905b828210156121795783829060005260206000209060040201604051806080016040529081600082015481526020016001820154815260200160028201805461209290614502565b80601f01602080910402602001604051908101604052809291908181526020018280546120be90614502565b801561210b5780601f106120e05761010080835404028352916020019161210b565b820191906000526020600020905b8154815290600101906020018083116120ee57829003601f168201915b505050505081526020016003820160009054906101000a900473ffffffffffffffffffffffffffffffffffffffff1673ffffffffffffffffffffffffffffffffffffffff1673ffffffffffffffffffffffffffffffffffffffff16815250508152602001906001019061204b565b505050509050919050565b6005602052816000526040600020602052806000526040600020600091509150505481565b60016020528060005260406000206000915054906101000a900460ff1681565b6121d1613c83565b600160008273ffffffffffffffffffffffffffffffffffffffff1673ffffffffffffffffffffffffffffffffffffffff16815260200190815260200160002060009054906101000a900460ff1661225d576040517f08c379a0000000000000000000000000000000000000000000000000000000008152600401612254906149fb565b60405180910390fd5b600660003373ffffffffffffffffffffffffffffffffffffffff1673ffffffffffffffffffffffffffffffffffffffff168152602001908152602001600020544210156122df576040517f08c379a00000000000000000000000000000000000000000000000000000000081526004016122d690614db2565b60405180910390fd5b6000600560008373ffffffffffffffffffffffffffffffffffffffff1673ffffffffffffffffffffffffffffffffffffffff16815260200190815260200160002060003373ffffffffffffffffffffffffffffffffffffffff1673ffffffffffffffffffffffffffffffffffffffff168152602001908152602001600020549050600081116123a3576040517f08c379a000000000000000000000000000000000000000000000000000000000815260040161239a90614e1e565b60405180910390fd5b60006123af3384611d5f565b90506000600560008573ffffffffffffffffffffffffffffffffffffffff1673ffffffffffffffffffffffffffffffffffffffff16815260200190815260200160002060003373ffffffffffffffffffffffffffffffffffffffff1673ffffffffffffffffffffffffffffffffffffffff1681526020019081526020016000208190555060008183612441919061449f565b90508373ffffffffffffffffffffffffffffffffffffffff1663a9059cbb33836040518363ffffffff1660e01b815260040161247e929190614c9d565b6020604051808303816000875af115801561249d573d6000803e3d6000fd5b505050506040513d601f19601f820116820180604052508101906124c19190614b98565b612500576040517f08c379a00000000000000000000000000000000000000000000000000000000081526004016124f790614c11565b60405180910390fd5b6000600660003373ffffffffffffffffffffffffffffffffffffffff1673ffffffffffffffffffffffffffffffffffffffff16815260200190815260200160002081905550600a60003373ffffffffffffffffffffffffffffffffffffffff1673ffffffffffffffffffffffffffffffffffffffff16815260200190815260200160002060405180608001604052808581526020014281526020016040518060400160405280600e81526020017f77697468647261774c6f636b656400000000000000000000000000000000000081525081526020018673ffffffffffffffffffffffffffffffffffffffff1681525090806001815401808255809150506001900390600052602060002090600402016000909190919091506000820151816000015560208201518160010155604082015181600201908161264291906147dc565b5060608201518160030160006101000a81548173ffffffffffffffffffffffffffffffffffffffff021916908373ffffffffffffffffffffffffffffffffffffffff16021790555050503373ffffffffffffffffffffffffffffffffffffffff167f3033d3c61d006e01606218c86fa4e0e7eaff437809d0f7e8423d735de8cba8398585856040516126d693929190614e3e565b60405180910390a25050506126e9613cc9565b50565b60026020528060005260406000206000915090505481565b600080600460008573ffffffffffffffffffffffffffffffffffffffff1673ffffffffffffffffffffffffffffffffffffffff1681526020019081526020016000205414806127cf57506000600360008473ffffffffffffffffffffffffffffffffffffffff1673ffffffffffffffffffffffffffffffffffffffff16815260200190815260200160002060008573ffffffffffffffffffffffffffffffffffffffff1673ffffffffffffffffffffffffffffffffffffffff16815260200190815260200160002054145b806128185750600460008473ffffffffffffffffffffffffffffffffffffffff1673ffffffffffffffffffffffffffffffffffffffff1681526020019081526020016000205442105b156128265760009050612970565b6000600460008573ffffffffffffffffffffffffffffffffffffffff1673ffffffffffffffffffffffffffffffffffffffff16815260200190815260200160002054426128739190614d32565b90506301e13380811115612889576301e1338090505b61296c600360008573ffffffffffffffffffffffffffffffffffffffff1673ffffffffffffffffffffffffffffffffffffffff16815260200190815260200160002060008673ffffffffffffffffffffffffffffffffffffffff1673ffffffffffffffffffffffffffffffffffffffff1681526020019081526020016000205482600260008773ffffffffffffffffffffffffffffffffffffffff1673ffffffffffffffffffffffffffffffffffffffff168152602001908152602001600020546129549190614a87565b60646301e133806129659190614a87565b6000613cd3565b9150505b92915050565b7f000000000000000000000000000000000000000000000000000000000000000081565b600b60009054906101000a900473ffffffffffffffffffffffffffffffffffffffff1681565b60066020528060005260406000206000915090505481565b60086020528060005260406000206000915090508060000154908060010154908060020154908060040160009054906101000a900473ffffffffffffffffffffffffffffffffffffffff16905084565b7f000000000000000000000000000000000000000000000000000000000000000073ffffffffffffffffffffffffffffffffffffffff163373ffffffffffffffffffffffffffffffffffffffff1614612ab6576040517f08c379a0000000000000000000000000000000000000000000000000000000008152600401612aad90614ec1565b60405180910390fd5b600081118015612ac7575060148111155b612b06576040517f08c379a0000000000000000000000000000000000000000000000000000000008152600401612afd90614f2d565b60405180910390fd5b60018060008473ffffffffffffffffffffffffffffffffffffffff1673ffffffffffffffffffffffffffffffffffffffff16815260200190815260200160002060006101000a81548160ff02191690831515021790555080600260008473ffffffffffffffffffffffffffffffffffffffff1673ffffffffffffffffffffffffffffffffffffffff168152602001908152602001600020819055505050565b600160008473ffffffffffffffffffffffffffffffffffffffff1673ffffffffffffffffffffffffffffffffffffffff16815260200190815260200160002060009054906101000a900460ff16612c31576040517f08c379a0000000000000000000000000000000000000000000000000000000008152600401612c28906149fb565b60405180910390fd5b600082118015612c575750606469d3c21bcecceda1000000612c539190614a87565b8211155b612c96576040517f08c379a0000000000000000000000000000000000000000000000000000000008152600401612c8d9061457f565b60405180910390fd5b620151808110158015612cad57506301e133808111155b612cec576040517f08c379a0000000000000000000000000000000000000000000000000000000008152600401612ce3906145eb565b60405180910390fd5b60096000815480929190612cff90614f4d565b919050555081600860006009548152602001908152602001600020600101819055508042612d2d919061449f565b600860006009548152602001908152602001600020600201819055508260086000600954815260200190815260200160002060040160006101000a81548173ffffffffffffffffffffffffffffffffffffffff021916908373ffffffffffffffffffffffffffffffffffffffff1602179055507f26009067c118f792b884eef5f90d47045e6a57106dc00e6a7d68f851001ad684600954838342612dd1919061449f565b86604051612de294939291906143a1565b60405180910390a1505050565b60076020528060005260406000206000915090508060000154908060010154908060020160009054906101000a900460ff16905083565b612e2e613c83565b600160008473ffffffffffffffffffffffffffffffffffffffff1673ffffffffffffffffffffffffffffffffffffffff16815260200190815260200160002060009054906101000a900460ff16612eba576040517f08c379a0000000000000000000000000000000000000000000000000000000008152600401612eb1906149fb565b60405180910390fd5b60008211612efd576040517f08c379a0000000000000000000000000000000000000000000000000000000008152600401612ef490614a67565b60405180910390fd5b620151808110158015612f1457506301e133808111155b612f53576040517f08c379a0000000000000000000000000000000000000000000000000000000008152600401612f4a90614fe1565b60405180910390fd5b69d3c21bcecceda100000082600560008673ffffffffffffffffffffffffffffffffffffffff1673ffffffffffffffffffffffffffffffffffffffff16815260200190815260200160002060003373ffffffffffffffffffffffffffffffffffffffff1673ffffffffffffffffffffffffffffffffffffffff16815260200190815260200160002054612fe6919061449f565b1115613027576040517f08c379a000000000000000000000000000000000000000000000000000000000815260040161301e90614c7d565b60405180910390fd5b8273ffffffffffffffffffffffffffffffffffffffff166323b872dd3330856040518463ffffffff1660e01b815260040161306493929190614b35565b6020604051808303816000875af1158015613083573d6000803e3d6000fd5b505050506040513d601f19601f820116820180604052508101906130a79190614b98565b6130e6576040517f08c379a00000000000000000000000000000000000000000000000000000000081526004016130dd90614c11565b60405180910390fd5b81600560008573ffffffffffffffffffffffffffffffffffffffff1673ffffffffffffffffffffffffffffffffffffffff16815260200190815260200160002060003373ffffffffffffffffffffffffffffffffffffffff1673ffffffffffffffffffffffffffffffffffffffff1681526020019081526020016000206000828254613172919061449f565b925050819055508042613185919061449f565b600660003373ffffffffffffffffffffffffffffffffffffffff1673ffffffffffffffffffffffffffffffffffffffff16815260200190815260200160002081905550600a60003373ffffffffffffffffffffffffffffffffffffffff1673ffffffffffffffffffffffffffffffffffffffff16815260200190815260200160002060405180608001604052808481526020014281526020016040518060400160405280600b81526020017f6c6f636b4465706f73697400000000000000000000000000000000000000000081525081526020018573ffffffffffffffffffffffffffffffffffffffff168152509080600181540180825580915050600190039060005260206000209060040201600090919091909150600082015181600001556020820151816001015560408201518160020190816132c591906147dc565b5060608201518160030160006101000a81548173ffffffffffffffffffffffffffffffffffffffff021916908373ffffffffffffffffffffffffffffffffffffffff16021790555050503373ffffffffffffffffffffffffffffffffffffffff167f0b2a229c1ced07f11fb93aa183de73b8b33c2d564a14dbfc10107de7dd88e16784848460405161335993929190614e3e565b60405180910390a2613369613cc9565b505050565b6003602052816000526040600020602052806000526040600020600091509150505481565b600061339f8383611d5f565b600560008473ffffffffffffffffffffffffffffffffffffffff1673ffffffffffffffffffffffffffffffffffffffff16815260200190815260200160002060008573ffffffffffffffffffffffffffffffffffffffff1673ffffffffffffffffffffffffffffffffffffffff16815260200190815260200160002054613426919061449f565b905092915050565b600061343a8383612704565b600360008473ffffffffffffffffffffffffffffffffffffffff1673ffffffffffffffffffffffffffffffffffffffff16815260200190815260200160002060008573ffffffffffffffffffffffffffffffffffffffff1673ffffffffffffffffffffffffffffffffffffffff168152602001908152602001600020546134c1919061449f565b905092915050565b600060095482111580156134dd5750600082115b61351c576040517f08c379a000000000000000000000000000000000000000000000000000000000815260040161351390614923565b60405180910390fd5b60086000838152602001908152602001600020600001549050919050565b613542613c83565b600160008373ffffffffffffffffffffffffffffffffffffffff1673ffffffffffffffffffffffffffffffffffffffff16815260200190815260200160002060009054906101000a900460ff166135ce576040517f08c379a00000000000000000000000000000000000000000000000000000000081526004016135c5906149fb565b60405180910390fd5b80600360008473ffffffffffffffffffffffffffffffffffffffff1673ffffffffffffffffffffffffffffffffffffffff16815260200190815260200160002060003373ffffffffffffffffffffffffffffffffffffffff1673ffffffffffffffffffffffffffffffffffffffff16815260200190815260200160002054101561368d576040517f08c379a00000000000000000000000000000000000000000000000000000000081526004016136849061504d565b60405180910390fd5b60006136993384612704565b905081600360008573ffffffffffffffffffffffffffffffffffffffff1673ffffffffffffffffffffffffffffffffffffffff16815260200190815260200160002060003373ffffffffffffffffffffffffffffffffffffffff1673ffffffffffffffffffffffffffffffffffffffff16815260200190815260200160002060008282546137279190614d32565b925050819055506000818361373c919061449f565b90508373ffffffffffffffffffffffffffffffffffffffff1663a9059cbb33836040518363ffffffff1660e01b8152600401613779929190614c9d565b6020604051808303816000875af1158015613798573d6000803e3d6000fd5b505050506040513d601f19601f820116820180604052508101906137bc9190614b98565b6137fb576040517f08c379a00000000000000000000000000000000000000000000000000000000081526004016137f290614c11565b60405180910390fd5b6000600360008673ffffffffffffffffffffffffffffffffffffffff1673ffffffffffffffffffffffffffffffffffffffff16815260200190815260200160002060003373ffffffffffffffffffffffffffffffffffffffff1673ffffffffffffffffffffffffffffffffffffffff1681526020019081526020016000205411613886576000613888565b425b600460003373ffffffffffffffffffffffffffffffffffffffff1673ffffffffffffffffffffffffffffffffffffffff16815260200190815260200160002081905550600a60003373ffffffffffffffffffffffffffffffffffffffff1673ffffffffffffffffffffffffffffffffffffffff16815260200190815260200160002060405180608001604052808581526020014281526020016040518060400160405280600881526020017f776974686472617700000000000000000000000000000000000000000000000081525081526020018673ffffffffffffffffffffffffffffffffffffffff168152509080600181540180825580915050600190039060005260206000209060040201600090919091909150600082015181600001556020820151816001015560408201518160020190816139c891906147dc565b5060608201518160030160006101000a81548173ffffffffffffffffffffffffffffffffffffffff021916908373ffffffffffffffffffffffffffffffffffffffff16021790555050503373ffffffffffffffffffffffffffffffffffffffff167f91fb9d98b786c57d74c099ccd2beca1739e9f6a81fb49001ca465c4b7591bbe2858585604051613a5c93929190614e3e565b60405180910390a25050613a6e613cc9565b5050565b60095481565b600160008273ffffffffffffffffffffffffffffffffffffffff1673ffffffffffffffffffffffffffffffffffffffff16815260200190815260200160002060009054906101000a900460ff16613b04576040517f08c379a0000000000000000000000000000000000000000000000000000000008152600401613afb906149fb565b60405180910390fd5b6000600b60009054906101000a900473ffffffffffffffffffffffffffffffffffffffff1673ffffffffffffffffffffffffffffffffffffffff1663feaf968c6040518163ffffffff1660e01b815260040160a060405180830381865afa158015613b73573d6000803e3d6000fd5b505050506040513d601f19601f82011682018060405250810190613b9791906150fa565b50505091505060006305f5e10082613baf91906151a4565b9050600081118015613bc2575060148111155b613c01576040517f08c379a0000000000000000000000000000000000000000000000000000000008152600401613bf890615221565b60405180910390fd5b80600260008573ffffffffffffffffffffffffffffffffffffffff1673ffffffffffffffffffffffffffffffffffffffff168152602001908152602001600020819055507f492de3ddd6d733b461680f630083e98c567b860343e3f9ac763ee61d7c57b5488382604051613c76929190614c9d565b60405180910390a1505050565b600260005403613cbf576040517f3ee5aeb500000000000000000000000000000000000000000000000000000000815260040160405180910390fd5b6002600081905550565b6001600081905550565b600080613ce1868686613d2a565b9050613cec83613e31565b8015613d09575060008480613d0457613d03615175565b5b868809115b15613d1e57600181613d1b919061449f565b90505b80915050949350505050565b6000808385029050600080198587098281108382030391505060008103613d6557838281613d5b57613d5a615175565b5b0492505050613e2a565b808411613d9e576040517f227bc15300000000000000000000000000000000000000000000000000000000815260040160405180910390fd5b600084868809905082811182039150808303925060008560000386169050808604955080840493506001818260000304019050808302841793506000600287600302189050808702600203810290508087026002038102905080870260020381029050808702600203810290508087026002038102905080870260020381029050808502955050505050505b9392505050565b600060016002836003811115613e4a57613e49615241565b5b613e54919061527d565b60ff16149050919050565b600080fd5b600073ffffffffffffffffffffffffffffffffffffffff82169050919050565b6000613e8f82613e64565b9050919050565b613e9f81613e84565b8114613eaa57600080fd5b50565b600081359050613ebc81613e96565b92915050565b600060208284031215613ed857613ed7613e5f565b5b6000613ee684828501613ead565b91505092915050565b60008115159050919050565b613f0481613eef565b82525050565b6000602082019050613f1f6000830184613efb565b92915050565b6000819050919050565b613f3881613f25565b8114613f4357600080fd5b50565b600081359050613f5581613f2f565b92915050565b60008060408385031215613f7257613f71613e5f565b5b6000613f8085828601613ead565b9250506020613f9185828601613f46565b9150509250929050565b613fa481613f25565b82525050565b600081519050919050565b600082825260208201905092915050565b60005b83811015613fe4578082015181840152602081019050613fc9565b60008484015250505050565b6000601f19601f8301169050919050565b600061400c82613faa565b6140168185613fb5565b9350614026818560208601613fc6565b61402f81613ff0565b840191505092915050565b61404381613e84565b82525050565b600060808201905061405e6000830187613f9b565b61406b6020830186613f9b565b818103604083015261407d8185614001565b905061408c606083018461403a565b95945050505050565b60006020820190506140aa6000830184613f9b565b92915050565b600080604083850312156140c7576140c6613e5f565b5b60006140d585828601613f46565b92505060206140e685828601613f46565b9150509250929050565b6000806040838503121561410757614106613e5f565b5b600061411585828601613ead565b925050602061412685828601613ead565b9150509250929050565b600081519050919050565b600082825260208201905092915050565b6000819050602082019050919050565b61416581613f25565b82525050565b600082825260208201905092915050565b600061418782613faa565b614191818561416b565b93506141a1818560208601613fc6565b6141aa81613ff0565b840191505092915050565b6141be81613e84565b82525050565b60006080830160008301516141dc600086018261415c565b5060208301516141ef602086018261415c565b5060408301518482036040860152614207828261417c565b915050606083015161421c60608601826141b5565b508091505092915050565b600061423383836141c4565b905092915050565b6000602082019050919050565b600061425382614130565b61425d818561413b565b93508360208202850161426f8561414c565b8060005b858110156142ab578484038952815161428c8582614227565b94506142978361423b565b925060208a01995050600181019050614273565b50829750879550505050505092915050565b600060208201905081810360008301526142d78184614248565b905092915050565b60006020820190506142f4600083018461403a565b92915050565b6000819050919050565b600061431f61431a61431584613e64565b6142fa565b613e64565b9050919050565b600061433182614304565b9050919050565b600061434382614326565b9050919050565b61435381614338565b82525050565b600060208201905061436e600083018461434a565b92915050565b60006020828403121561438a57614389613e5f565b5b600061439884828501613f46565b91505092915050565b60006080820190506143b66000830187613f9b565b6143c36020830186613f9b565b6143d06040830185613f9b565b6143dd606083018461403a565b95945050505050565b6000806000606084860312156143ff576143fe613e5f565b5b600061440d86828701613ead565b935050602061441e86828701613f46565b925050604061442f86828701613f46565b9150509250925092565b600060608201905061444e6000830186613f9b565b61445b6020830185613f9b565b6144686040830184613efb565b949350505050565b7f4e487b7100000000000000000000000000000000000000000000000000000000600052601160045260246000fd5b60006144aa82613f25565b91506144b583613f25565b92508282019050808211156144cd576144cc614470565b5b92915050565b7f4e487b7100000000000000000000000000000000000000000000000000000000600052602260045260246000fd5b6000600282049050600182168061451a57607f821691505b60208210810361452d5761452c6144d3565b5b50919050565b7f496e76616c69642074617267657420616d6f756e740000000000000000000000600082015250565b6000614569601583613fb5565b915061457482614533565b602082019050919050565b600060208201905081810360008301526145988161455c565b9050919050565b7f496e76616c6964206475726174696f6e00000000000000000000000000000000600082015250565b60006145d5601083613fb5565b91506145e08261459f565b602082019050919050565b60006020820190508181036000830152614604816145c8565b9050919050565b7f4e487b7100000000000000000000000000000000000000000000000000000000600052604160045260246000fd5b60008190508160005260206000209050919050565b60006020601f8301049050919050565b600082821b905092915050565b60006008830261469c7fffffffffffffffffffffffffffffffffffffffffffffffffffffffffffffffff8261465f565b6146a6868361465f565b95508019841693508086168417925050509392505050565b60006146d96146d46146cf84613f25565b6142fa565b613f25565b9050919050565b6000819050919050565b6146f3836146be565b6147076146ff826146e0565b84845461466c565b825550505050565b600090565b61471c61470f565b6147278184846146ea565b505050565b5b8181101561474b57614740600082614714565b60018101905061472d565b5050565b601f821115614790576147618161463a565b61476a8461464f565b81016020851015614779578190505b61478d6147858561464f565b83018261472c565b50505b505050565b600082821c905092915050565b60006147b360001984600802614795565b1980831691505092915050565b60006147cc83836147a2565b9150826002028217905092915050565b6147e582613faa565b67ffffffffffffffff8111156147fe576147fd61460b565b5b6148088254614502565b61481382828561474f565b600060209050601f8311600181146148465760008415614834578287015190505b61483e85826147c0565b8655506148a6565b601f1984166148548661463a565b60005b8281101561487c57848901518255600182019150602085019450602081019050614857565b868310156148995784890151614895601f8916826147a2565b8355505b6001600288020188555050505b505050505050565b60006040820190506148c36000830185613f9b565b6148d06020830184613f9b565b9392505050565b7f496e76616c696420706f6f6c2049440000000000000000000000000000000000600082015250565b600061490d600f83613fb5565b9150614918826148d7565b602082019050919050565b6000602082019050818103600083015261493c81614900565b9050919050565b7f506f6f6c20636c6f736564000000000000000000000000000000000000000000600082015250565b6000614979600b83613fb5565b915061498482614943565b602082019050919050565b600060208201905081810360008301526149a88161496c565b9050919050565b7f556e737570706f7274656420746f6b656e000000000000000000000000000000600082015250565b60006149e5601183613fb5565b91506149f0826149af565b602082019050919050565b60006020820190508181036000830152614a14816149d8565b9050919050565b7f416d6f756e74206d7573742062652067726561746572207468616e2030000000600082015250565b6000614a51601d83613fb5565b9150614a5c82614a1b565b602082019050919050565b60006020820190508181036000830152614a8081614a44565b9050919050565b6000614a9282613f25565b9150614a9d83613f25565b9250828202614aab81613f25565b91508282048414831517614ac257614ac1614470565b5b5092915050565b7f506f6f6c2065786365656473206d6178696d756d000000000000000000000000600082015250565b6000614aff601483613fb5565b9150614b0a82614ac9565b602082019050919050565b60006020820190508181036000830152614b2e81614af2565b9050919050565b6000606082019050614b4a600083018661403a565b614b57602083018561403a565b614b646040830184613f9b565b949350505050565b614b7581613eef565b8114614b8057600080fd5b50565b600081519050614b9281614b6c565b92915050565b600060208284031215614bae57614bad613e5f565b5b6000614bbc84828501614b83565b91505092915050565b7f5472616e73666572206661696c65640000000000000000000000000000000000600082015250565b6000614bfb600f83613fb5565b9150614c0682614bc5565b602082019050919050565b60006020820190508181036000830152614c2a81614bee565b9050919050565b7f42616c616e63652065786365656473206d6178696d756d000000000000000000600082015250565b6000614c67601783613fb5565b9150614c7282614c31565b602082019050919050565b60006020820190508181036000830152614c9681614c5a565b9050919050565b6000604082019050614cb2600083018561403a565b614cbf6020830184613f9b565b9392505050565b7f417070726f76616c206661696c65640000000000000000000000000000000000600082015250565b6000614cfc600f83613fb5565b9150614d0782614cc6565b602082019050919050565b60006020820190508181036000830152614d2b81614cef565b9050919050565b6000614d3d82613f25565b9150614d4883613f25565b9250828203905081811115614d6057614d5f614470565b5b92915050565b7f46756e6473207374696c6c206c6f636b65640000000000000000000000000000600082015250565b6000614d9c601283613fb5565b9150614da782614d66565b602082019050919050565b60006020820190508181036000830152614dcb81614d8f565b9050919050565b7f4e6f206c6f636b65642066756e64730000000000000000000000000000000000600082015250565b6000614e08600f83613fb5565b9150614e1382614dd2565b602082019050919050565b60006020820190508181036000830152614e3781614dfb565b9050919050565b6000606082019050614e53600083018661403a565b614e606020830185613f9b565b614e6d6040830184613f9b565b949350505050565b7f4f6e6c79206f776e657200000000000000000000000000000000000000000000600082015250565b6000614eab600a83613fb5565b9150614eb682614e75565b602082019050919050565b60006020820190508181036000830152614eda81614e9e565b9050919050565b7f496e76616c696420726174650000000000000000000000000000000000000000600082015250565b6000614f17600c83613fb5565b9150614f2282614ee1565b602082019050919050565b60006020820190508181036000830152614f4681614f0a565b9050919050565b6000614f5882613f25565b91507fffffffffffffffffffffffffffffffffffffffffffffffffffffffffffffffff8203614f8a57614f89614470565b5b600182019050919050565b7f496e76616c6964206c6f636b206475726174696f6e0000000000000000000000600082015250565b6000614fcb601583613fb5565b9150614fd682614f95565b602082019050919050565b60006020820190508181036000830152614ffa81614fbe565b9050919050565b7f496e73756666696369656e742062616c616e6365000000000000000000000000600082015250565b6000615037601483613fb5565b915061504282615001565b602082019050919050565b600060208201905081810360008301526150668161502a565b9050919050565b600069ffffffffffffffffffff82169050919050565b61508c8161506d565b811461509757600080fd5b50565b6000815190506150a981615083565b92915050565b6000819050919050565b6150c2816150af565b81146150cd57600080fd5b50565b6000815190506150df816150b9565b92915050565b6000815190506150f481613f2f565b92915050565b600080600080600060a0868803121561511657615115613e5f565b5b60006151248882890161509a565b9550506020615135888289016150d0565b9450506040615146888289016150e5565b9350506060615157888289016150e5565b92505060806151688882890161509a565b9150509295509295909350565b7f4e487b7100000000000000000000000000000000000000000000000000000000600052601260045260246000fd5b60006151af82613f25565b91506151ba83613f25565b9250826151ca576151c9615175565b5b828204905092915050565b7f496e76616c6964206f7261636c65207261746500000000000000000000000000600082015250565b600061520b601383613fb5565b9150615216826151d5565b602082019050919050565b6000602082019050818103600083015261523a816151fe565b9050919050565b7f4e487b7100000000000000000000000000000000000000000000000000000000600052602160045260246000fd5b600060ff82169050919050565b600061528882615270565b915061529383615270565b9250826152a3576152a2615175565b5b82820690509291505056fea26469706673582212206baf6a82b25d2ce20b94584f2a454529d1bb51e0b4b4119dcb5a50b4f893a9a364736f6c634300081c0033","linkReferences":{}},"methodIdentifiers":{"addToken(address,uint256)":"af81c5b9","balances(address,address)":"c23f001f","batchDeposit(address,uint256)":"3b616708","calculateInterest(address,address)":"87092940","calculateLockedInterest(address,address)":"4b6290e5","checkGoal(address)":"066bf18c","contributeToPool(uint256,uint256)":"3ad0d08f","createPool(address,uint256,uint256)":"b039ddf6","deposit(address,uint256)":"47e7ef24","depositTimestamps(address)":"240be944","getBalance(address,address)":"d4fac45d","getLockedBalance(address,address)":"c736887e","getPoolBalance(uint256)":"ed1375d5","getUserHistory(address)":"4fb3d3b1","lockDeposit(address,uint256,uint256)":"bf0e92c4","lockTimestamps(address)":"a2870d94","lockedBalances(address,address)":"52e5b7e4","owner()":"8da5cb5b","poolCount()":"f525cb68","pools(uint256)":"ac4afa38","rateOracle()":"98f4b1b2","setGoal(uint256,uint256)":"29577f4c","supportedTokens(address)":"68c4ac26","tokenRates(address)":"86403125","updateRate(address)":"f74826bb","userGoals(address)":"b7fa76c9","userHistory(address,uint256)":"22e8b990","withdraw(address,uint256)":"f3fef3a3","withdrawLocked(address)":"7ac0d155"},"id":33}